{
  "contractName": "Medishield",
  "abi": [
    {
      "constant": true,
      "inputs": [
        {
          "name": "",
          "type": "uint256"
        }
      ],
      "name": "healthcareList",
      "outputs": [
        {
          "name": "",
          "type": "address"
        }
      ],
      "payable": false,
      "stateMutability": "view",
      "type": "function"
    },
    {
      "constant": true,
      "inputs": [
        {
          "name": "",
          "type": "uint256"
        }
      ],
      "name": "patientList",
      "outputs": [
        {
          "name": "",
          "type": "address"
        }
      ],
      "payable": false,
      "stateMutability": "view",
      "type": "function"
    },
    {
      "constant": false,
      "inputs": [
        {
          "name": "_name",
          "type": "string"
        },
        {
          "name": "_number",
          "type": "uint256"
        },
        {
          "name": "_designation",
          "type": "uint256"
        },
        {
          "name": "_hash",
          "type": "string"
        }
      ],
      "name": "add_agent",
      "outputs": [
        {
          "name": "",
          "type": "string"
        }
      ],
      "payable": false,
      "stateMutability": "nonpayable",
      "type": "function"
    },
    {
      "constant": true,
      "inputs": [
        {
          "name": "addr",
          "type": "address"
        }
      ],
      "name": "get_patient",
      "outputs": [
        {
          "name": "",
          "type": "string"
        },
        {
          "name": "",
          "type": "uint256"
        },
        {
          "name": "",
          "type": "uint256[]"
        },
        {
          "name": "",
          "type": "address"
        },
        {
          "name": "",
          "type": "string"
        }
      ],
      "payable": false,
      "stateMutability": "view",
      "type": "function"
    },
    {
      "constant": false,
      "inputs": [
        {
          "name": "_recordHash",
          "type": "string"
        }
      ],
      "name": "uploadPatientRecord",
      "outputs": [],
      "payable": false,
      "stateMutability": "nonpayable",
      "type": "function"
    },
    {
      "constant": true,
      "inputs": [
        {
          "name": "addr",
          "type": "address"
        }
      ],
      "name": "getPatientRecordCount",
      "outputs": [
        {
          "name": "",
          "type": "uint256"
        }
      ],
      "payable": false,
      "stateMutability": "view",
      "type": "function"
    },
    {
      "constant": true,
      "inputs": [
        {
          "name": "index",
          "type": "uint256"
        },
        {
          "name": "addr",
          "type": "address"
        }
      ],
      "name": "getPatientRecord",
      "outputs": [
        {
          "name": "",
          "type": "string"
        }
      ],
      "payable": false,
      "stateMutability": "view",
      "type": "function"
    },
    {
      "constant": true,
      "inputs": [
        {
          "name": "addr",
          "type": "address"
        }
      ],
      "name": "getAllPatientRecords",
      "outputs": [
        {
          "name": "",
          "type": "uint256"
        },
        {
          "name": "",
          "type": "string[]"
        }
      ],
      "payable": false,
      "stateMutability": "view",
      "type": "function"
    },
    {
      "constant": true,
      "inputs": [
        {
          "name": "addr",
          "type": "address"
        }
      ],
      "name": "get_healthcare",
      "outputs": [
        {
          "name": "",
          "type": "string"
        },
        {
          "name": "",
          "type": "uint256"
        },
        {
          "name": "",
          "type": "uint256"
        }
      ],
      "payable": false,
      "stateMutability": "view",
      "type": "function"
    },
    {
      "constant": true,
      "inputs": [
        {
          "name": "paddr",
          "type": "address"
        },
        {
          "name": "daddr",
          "type": "address"
        }
      ],
      "name": "get_patient_healthcare_name",
      "outputs": [
        {
          "name": "",
          "type": "string"
        },
        {
          "name": "",
          "type": "string"
        }
      ],
      "payable": false,
      "stateMutability": "view",
      "type": "function"
    },
    {
      "constant": false,
      "inputs": [
        {
          "name": "addr",
          "type": "address"
        }
      ],
      "name": "permit_access",
      "outputs": [],
      "payable": true,
      "stateMutability": "payable",
      "type": "function"
    },
    {
      "constant": false,
      "inputs": [
        {
          "name": "paddr",
          "type": "address"
        },
        {
          "name": "_diagnosis",
          "type": "uint256"
        },
        {
          "name": "_hash",
          "type": "string"
        }
      ],
      "name": "submitfile",
      "outputs": [],
      "payable": false,
      "stateMutability": "nonpayable",
      "type": "function"
    },
    {
      "constant": false,
      "inputs": [
        {
          "name": "paddr",
          "type": "address"
        },
        {
          "name": "daddr",
          "type": "address"
        }
      ],
      "name": "remove_patient",
      "outputs": [],
      "payable": false,
      "stateMutability": "nonpayable",
      "type": "function"
    },
    {
      "constant": true,
      "inputs": [
        {
          "name": "addr",
          "type": "address"
        }
      ],
      "name": "get_accessed_healthcarelist_for_patient",
      "outputs": [
        {
          "name": "",
          "type": "address[]"
        }
      ],
      "payable": false,
      "stateMutability": "view",
      "type": "function"
    },
    {
      "constant": true,
      "inputs": [
        {
          "name": "addr",
          "type": "address"
        }
      ],
      "name": "get_accessed_patientlist_for_healthcare",
      "outputs": [
        {
          "name": "",
          "type": "address[]"
        }
      ],
      "payable": false,
      "stateMutability": "view",
      "type": "function"
    },
    {
      "constant": false,
      "inputs": [
        {
          "name": "daddr",
          "type": "address"
        }
      ],
      "name": "revoke_access",
      "outputs": [],
      "payable": true,
      "stateMutability": "payable",
      "type": "function"
    },
    {
      "constant": true,
      "inputs": [],
      "name": "get_patient_list",
      "outputs": [
        {
          "name": "",
          "type": "address[]"
        }
      ],
      "payable": false,
      "stateMutability": "view",
      "type": "function"
    },
    {
      "constant": true,
      "inputs": [],
      "name": "get_healthcare_list",
      "outputs": [
        {
          "name": "",
          "type": "address[]"
        }
      ],
      "payable": false,
      "stateMutability": "view",
      "type": "function"
    },
    {
      "constant": true,
      "inputs": [
        {
          "name": "paddr",
          "type": "address"
        }
      ],
      "name": "get_hash",
      "outputs": [
        {
          "name": "",
          "type": "string"
        }
      ],
      "payable": false,
      "stateMutability": "view",
      "type": "function"
    }
  ],
  "bytecode": "0x608060405234801561001057600080fd5b506127d4806100206000396000f3fe608060405260043610610101576000357c0100000000000000000000000000000000000000000000000000000000900480630362fe9b146101065780630a9682ad1461012f578063239a75ff1461016c57806327b1dcee146101a95780633740b3c0146101c55780634042d2d41461020257806352fc89c21461024357806365ba3f8c1461026e5780637e1519ce1461029757806386200c91146102d45780639f55c37b146102fd578063babb1d411461033a578063bcffb7ca14610377578063c595a44b14610393578063cb37190e146103d0578063cdfbfb5c1461040e578063e7322c701461044c578063e81ac0541461048b578063f02d90a4146104b6575b600080fd5b34801561011257600080fd5b5061012d600480360361012891908101906120a9565b6104f3565b005b34801561013b57600080fd5b5061015660048036036101519190810190612080565b61058f565b60405161016391906125c6565b60405180910390f35b34801561017857600080fd5b50610193600480360361018e9190810190612080565b6105de565b6040516101a09190612485565b60405180910390f35b6101c360048036036101be9190810190612080565b6106ae565b005b3480156101d157600080fd5b506101ec60048036036101e79190810190612220565b61071a565b6040516101f9919061246a565b60405180910390f35b34801561020e57600080fd5b5061022960048036036102249190810190612080565b610758565b60405161023a959493929190612500565b60405180910390f35b34801561024f57600080fd5b50610258610a68565b6040516102659190612485565b60405180910390f35b34801561027a57600080fd5b506102956004803603610290919081019061214c565b610af6565b005b3480156102a357600080fd5b506102be60048036036102b99190810190612080565b610b78565b6040516102cb91906124a7565b60405180910390f35b3480156102e057600080fd5b506102fb60048036036102f691908101906120e5565b610c5c565b005b34801561030957600080fd5b50610324600480360361031f9190810190612080565b610ed1565b6040516103319190612485565b60405180910390f35b34801561034657600080fd5b50610361600480360361035c9190810190612220565b610fa7565b60405161036e919061246a565b60405180910390f35b610391600480360361038c9190810190612080565b610fe5565b005b34801561039f57600080fd5b506103ba60048036036103b59190810190612249565b611160565b6040516103c791906124a7565b60405180910390f35b3480156103dc57600080fd5b506103f760048036036103f291908101906120a9565b6112e5565b6040516104059291906124c9565b60405180910390f35b34801561041a57600080fd5b5061043560048036036104309190810190612080565b6114af565b6040516104439291906125e1565b60405180910390f35b34801561045857600080fd5b50610473600480360361046e9190810190612080565b611547565b60405161048293929190612568565b60405180910390f35b34801561049757600080fd5b506104a06116bd565b6040516104ad9190612485565b60405180910390f35b3480156104c257600080fd5b506104dd60048036036104d8919081019061218d565b61174b565b6040516104ea91906124a7565b60405180910390f35b61053e600460008373ffffffffffffffffffffffffffffffffffffffff1673ffffffffffffffffffffffffffffffffffffffff16815260200190815260200160002060030183611a19565b5061058a600360008473ffffffffffffffffffffffffffffffffffffffff1673ffffffffffffffffffffffffffffffffffffffff16815260200190815260200160002060020182611a19565b505050565b6000600360008373ffffffffffffffffffffffffffffffffffffffff1673ffffffffffffffffffffffffffffffffffffffff168152602001908152602001600020600501805490509050919050565b6060600460008373ffffffffffffffffffffffffffffffffffffffff1673ffffffffffffffffffffffffffffffffffffffff1681526020019081526020016000206003018054806020026020016040519081016040528092919081815260200182805480156106a257602002820191906000526020600020905b8160009054906101000a900473ffffffffffffffffffffffffffffffffffffffff1673ffffffffffffffffffffffffffffffffffffffff1681526020019060010190808311610658575b50505050509050919050565b6106b833826104f3565b3373ffffffffffffffffffffffffffffffffffffffff166108fc671bc16d674ec800009081150290604051600060405180830381858888f19350505050158015610706573d6000803e3d6000fd5b506002600080828254039250508190555050565b60028181548110151561072957fe5b906000526020600020016000915054906101000a900473ffffffffffffffffffffffffffffffffffffffff1681565b60606000606060006060600360008773ffffffffffffffffffffffffffffffffffffffff1673ffffffffffffffffffffffffffffffffffffffff168152602001908152602001600020600001600360008873ffffffffffffffffffffffffffffffffffffffff1673ffffffffffffffffffffffffffffffffffffffff16815260200190815260200160002060010154600360008973ffffffffffffffffffffffffffffffffffffffff1673ffffffffffffffffffffffffffffffffffffffff168152602001908152602001600020600301600560008a73ffffffffffffffffffffffffffffffffffffffff1673ffffffffffffffffffffffffffffffffffffffff16815260200190815260200160002060009054906101000a900473ffffffffffffffffffffffffffffffffffffffff16600360008b73ffffffffffffffffffffffffffffffffffffffff1673ffffffffffffffffffffffffffffffffffffffff168152602001908152602001600020600401848054600181600116156101000203166002900480601f0160208091040260200160405190810160405280929190818152602001828054600181600116156101000203166002900480156109605780601f1061093557610100808354040283529160200191610960565b820191906000526020600020905b81548152906001019060200180831161094357829003601f168201915b50505050509450828054806020026020016040519081016040528092919081815260200182805480156109b257602002820191906000526020600020905b81548152602001906001019080831161099e575b50505050509250808054600181600116156101000203166002900480601f016020809104026020016040519081016040528092919081815260200182805460018160011615610100020316600290048015610a4e5780601f10610a2357610100808354040283529160200191610a4e565b820191906000526020600020905b815481529060010190602001808311610a3157829003601f168201915b505050505090509450945094509450945091939590929450565b60606002805480602002602001604051908101604052809291908181526020018280548015610aec57602002820191906000526020600020905b8160009054906101000a900473ffffffffffffffffffffffffffffffffffffffff1673ffffffffffffffffffffffffffffffffffffffff1681526020019060010190808311610aa2575b5050505050905090565b600360003373ffffffffffffffffffffffffffffffffffffffff1673ffffffffffffffffffffffffffffffffffffffff168152602001908152602001600020600501819080600181540180825580915050906001820390600052602060002001600090919290919091509080519060200190610b73929190611c63565b505050565b6060600360008373ffffffffffffffffffffffffffffffffffffffff1673ffffffffffffffffffffffffffffffffffffffff1681526020019081526020016000206004018054600181600116156101000203166002900480601f016020809104026020016040519081016040528092919081815260200182805460018160011615610100020316600290048015610c505780601f10610c2557610100808354040283529160200191610c50565b820191906000526020600020905b815481529060010190602001808311610c3357829003601f168201915b50505050509050919050565b600080905060008090505b600460003373ffffffffffffffffffffffffffffffffffffffff1673ffffffffffffffffffffffffffffffffffffffff16815260200190815260200160002060030180549050811015610dd2578473ffffffffffffffffffffffffffffffffffffffff16600460003373ffffffffffffffffffffffffffffffffffffffff1673ffffffffffffffffffffffffffffffffffffffff16815260200190815260200160002060030182815481101515610d1a57fe5b9060005260206000200160009054906101000a900473ffffffffffffffffffffffffffffffffffffffff1673ffffffffffffffffffffffffffffffffffffffff161415610dc5573373ffffffffffffffffffffffffffffffffffffffff166108fc671bc16d674ec800009081150290604051600060405180830381858888f19350505050158015610daf573d6000803e3d6000fd5b5060026000808282540392505081905550600191505b8080600101915050610c67565b50600115158115151415610df957610dea8483611c08565b610df484336104f3565b610dfe565b600080fd5b600080905060008090505b600360008773ffffffffffffffffffffffffffffffffffffffff1673ffffffffffffffffffffffffffffffffffffffff16815260200190815260200160002060030180549050811015610ec95784600360008873ffffffffffffffffffffffffffffffffffffffff1673ffffffffffffffffffffffffffffffffffffffff16815260200190815260200160002060030182815481101515610ea657fe5b90600052602060002001541415610ebc57600191505b8080600101915050610e09565b505050505050565b60606000600360008473ffffffffffffffffffffffffffffffffffffffff1673ffffffffffffffffffffffffffffffffffffffff168152602001908152602001600020600201905080805480602002602001604051908101604052809291908181526020018280548015610f9a57602002820191906000526020600020905b8160009054906101000a900473ffffffffffffffffffffffffffffffffffffffff1673ffffffffffffffffffffffffffffffffffffffff1681526020019060010190808311610f50575b5050505050915050919050565b600181815481101515610fb657fe5b906000526020600020016000915054906101000a900473ffffffffffffffffffffffffffffffffffffffff1681565b671bc16d674ec8000034141515610ffb57600080fd5b600260008082825401925050819055506001600460008373ffffffffffffffffffffffffffffffffffffffff1673ffffffffffffffffffffffffffffffffffffffff1681526020019081526020016000206003013390806001815401808255809150509060018203906000526020600020016000909192909190916101000a81548173ffffffffffffffffffffffffffffffffffffffff021916908373ffffffffffffffffffffffffffffffffffffffff16021790555050506001600360003373ffffffffffffffffffffffffffffffffffffffff1673ffffffffffffffffffffffffffffffffffffffff1681526020019081526020016000206002018290806001815401808255809150509060018203906000526020600020016000909192909190916101000a81548173ffffffffffffffffffffffffffffffffffffffff021916908373ffffffffffffffffffffffffffffffffffffffff160217905550505050565b6060600360008373ffffffffffffffffffffffffffffffffffffffff1673ffffffffffffffffffffffffffffffffffffffff16815260200190815260200160002060050180549050831015156111eb576040517f08c379a00000000000000000000000000000000000000000000000000000000081526004016111e2906125a6565b60405180910390fd5b600360008373ffffffffffffffffffffffffffffffffffffffff1673ffffffffffffffffffffffffffffffffffffffff1681526020019081526020016000206005018381548110151561123a57fe5b906000526020600020018054600181600116156101000203166002900480601f0160208091040260200160405190810160405280929190818152602001828054600181600116156101000203166002900480156112d85780601f106112ad576101008083540402835291602001916112d8565b820191906000526020600020905b8154815290600101906020018083116112bb57829003601f168201915b5050505050905092915050565b606080600360008573ffffffffffffffffffffffffffffffffffffffff1673ffffffffffffffffffffffffffffffffffffffff168152602001908152602001600020600001600460008573ffffffffffffffffffffffffffffffffffffffff1673ffffffffffffffffffffffffffffffffffffffff168152602001908152602001600020600001818054600181600116156101000203166002900480601f0160208091040260200160405190810160405280929190818152602001828054600181600116156101000203166002900480156114015780601f106113d657610100808354040283529160200191611401565b820191906000526020600020905b8154815290600101906020018083116113e457829003601f168201915b50505050509150808054600181600116156101000203166002900480601f01602080910402602001604051908101604052809291908181526020018280546001816001161561010002031660029004801561149d5780601f106114725761010080835404028352916020019161149d565b820191906000526020600020905b81548152906001019060200180831161148057829003601f168201915b50505050509050915091509250929050565b6000606060006114be8461058f565b90506060816040519080825280602002602001820160405280156114f657816020015b60608152602001906001900390816114e15790505b50905060008090505b82811015611539576115118187611160565b828281518110151561151f57fe5b9060200190602002018190525080806001019150506114ff565b508181935093505050915091565b6060600080600460008573ffffffffffffffffffffffffffffffffffffffff1673ffffffffffffffffffffffffffffffffffffffff168152602001908152602001600020600001600460008673ffffffffffffffffffffffffffffffffffffffff1673ffffffffffffffffffffffffffffffffffffffff16815260200190815260200160002060010154600460008773ffffffffffffffffffffffffffffffffffffffff1673ffffffffffffffffffffffffffffffffffffffff16815260200190815260200160002060020154828054600181600116156101000203166002900480601f0160208091040260200160405190810160405280929190818152602001828054600181600116156101000203166002900480156116a95780601f1061167e576101008083540402835291602001916116a9565b820191906000526020600020905b81548152906001019060200180831161168c57829003601f168201915b505050505092509250925092509193909250565b6060600180548060200260200160405190810160405280929190818152602001828054801561174157602002820191906000526020600020905b8160009054906101000a900473ffffffffffffffffffffffffffffffffffffffff1673ffffffffffffffffffffffffffffffffffffffff16815260200190600101908083116116f7575b5050505050905090565b6060600033905060008414156118cf57611763611ce3565b8681600001819052508581602001818152505083816080018190525080600360003373ffffffffffffffffffffffffffffffffffffffff1673ffffffffffffffffffffffffffffffffffffffff16815260200190815260200160002060008201518160000190805190602001906117db929190611d1a565b50602082015181600101556040820151816002019080519060200190611802929190611d9a565b50606082015181600301908051906020019061181f929190611e24565b50608082015181600401908051906020019061183c929190611d1a565b5060a0820151816005019080519060200190611859929190611e71565b509050506001808390806001815401808255809150509060018203906000526020600020016000909192909190916101000a81548173ffffffffffffffffffffffffffffffffffffffff021916908373ffffffffffffffffffffffffffffffffffffffff16021790555050508692505050611a11565b60018414806118de5750600284145b15611a0c576118eb611ed1565b868160000181905250858160200181815250508481604001818152505080600460003373ffffffffffffffffffffffffffffffffffffffff1673ffffffffffffffffffffffffffffffffffffffff1681526020019081526020016000206000820151816000019080519060200190611964929190611d1a565b5060208201518160010155604082015181600201556060820151816003019080519060200190611995929190611d9a565b50905050600160028390806001815401808255809150509060018203906000526020600020016000909192909190916101000a81548173ffffffffffffffffffffffffffffffffffffffff021916908373ffffffffffffffffffffffffffffffffffffffff16021790555050508692505050611a11565b600080fd5b949350505050565b60008060009050600080905060008090505b8580549050811015611ab8578473ffffffffffffffffffffffffffffffffffffffff168682815481101515611a5c57fe5b9060005260206000200160009054906101000a900473ffffffffffffffffffffffffffffffffffffffff1673ffffffffffffffffffffffffffffffffffffffff161415611aab57600192508091505b8080600101915050611a2b565b50811515611ac557600080fd5b600185805490501415611b12578481815481101515611ae057fe5b9060005260206000200160006101000a81549073ffffffffffffffffffffffffffffffffffffffff0219169055611beb565b846001868054905003815481101515611b2757fe5b9060005260206000200160009054906101000a900473ffffffffffffffffffffffffffffffffffffffff168582815481101515611b6057fe5b9060005260206000200160006101000a81548173ffffffffffffffffffffffffffffffffffffffff021916908373ffffffffffffffffffffffffffffffffffffffff160217905550846001868054905003815481101515611bbd57fe5b9060005260206000200160006101000a81549073ffffffffffffffffffffffffffffffffffffffff02191690555b84805480919060019003611bff9190611efa565b50505092915050565b80600360008473ffffffffffffffffffffffffffffffffffffffff1673ffffffffffffffffffffffffffffffffffffffff1681526020019081526020016000206004019080519060200190611c5e929190611c63565b505050565b828054600181600116156101000203166002900490600052602060002090601f016020900481019282601f10611ca457805160ff1916838001178555611cd2565b82800160010185558215611cd2579182015b82811115611cd1578251825591602001919060010190611cb6565b5b509050611cdf9190611f26565b5090565b60c0604051908101604052806060815260200160008152602001606081526020016060815260200160608152602001606081525090565b828054600181600116156101000203166002900490600052602060002090601f016020900481019282601f10611d5b57805160ff1916838001178555611d89565b82800160010185558215611d89579182015b82811115611d88578251825591602001919060010190611d6d565b5b509050611d969190611f26565b5090565b828054828255906000526020600020908101928215611e13579160200282015b82811115611e125782518260006101000a81548173ffffffffffffffffffffffffffffffffffffffff021916908373ffffffffffffffffffffffffffffffffffffffff16021790555091602001919060010190611dba565b5b509050611e209190611f4b565b5090565b828054828255906000526020600020908101928215611e60579160200282015b82811115611e5f578251825591602001919060010190611e44565b5b509050611e6d9190611f26565b5090565b828054828255906000526020600020908101928215611ec0579160200282015b82811115611ebf578251829080519060200190611eaf929190611d1a565b5091602001919060010190611e91565b5b509050611ecd9190611f8e565b5090565b608060405190810160405280606081526020016000815260200160008152602001606081525090565b815481835581811115611f2157818360005260206000209182019101611f209190611f26565b5b505050565b611f4891905b80821115611f44576000816000905550600101611f2c565b5090565b90565b611f8b91905b80821115611f8757600081816101000a81549073ffffffffffffffffffffffffffffffffffffffff021916905550600101611f51565b5090565b90565b611fb791905b80821115611fb35760008181611faa9190611fba565b50600101611f94565b5090565b90565b50805460018160011615610100020316600290046000825580601f10611fe05750611fff565b601f016020900490600052602060002090810190611ffe9190611f26565b5b50565b600061200e823561272b565b905092915050565b600082601f830112151561202957600080fd5b813561203c6120378261263e565b612611565b9150808252602083016020830185838301111561205857600080fd5b612063838284612747565b50505092915050565b6000612078823561273d565b905092915050565b60006020828403121561209257600080fd5b60006120a084828501612002565b91505092915050565b600080604083850312156120bc57600080fd5b60006120ca85828601612002565b92505060206120db85828601612002565b9150509250929050565b6000806000606084860312156120fa57600080fd5b600061210886828701612002565b93505060206121198682870161206c565b925050604084013567ffffffffffffffff81111561213657600080fd5b61214286828701612016565b9150509250925092565b60006020828403121561215e57600080fd5b600082013567ffffffffffffffff81111561217857600080fd5b61218484828501612016565b91505092915050565b600080600080608085870312156121a357600080fd5b600085013567ffffffffffffffff8111156121bd57600080fd5b6121c987828801612016565b94505060206121da8782880161206c565b93505060406121eb8782880161206c565b925050606085013567ffffffffffffffff81111561220857600080fd5b61221487828801612016565b91505092959194509250565b60006020828403121561223257600080fd5b60006122408482850161206c565b91505092915050565b6000806040838503121561225c57600080fd5b600061226a8582860161206c565b925050602061227b85828601612002565b9150509250929050565b61228e816126ef565b82525050565b600061229f82612691565b8084526020840193506122b18361266a565b60005b828110156122e3576122c7868351612285565b6122d0826126c8565b91506020860195506001810190506122b4565b50849250505092915050565b60006122fa8261269c565b8084526020840193508360208202850161231385612677565b60005b8481101561234c57838303885261232e8383516123ee565b9250612339826126d5565b9150602088019750600181019050612316565b508196508694505050505092915050565b6000612368826126a7565b80845260208401935061237a83612684565b60005b828110156123ac5761239086835161245b565b612399826126e2565b915060208601955060018101905061237d565b50849250505092915050565b60006123c3826126bd565b8084526123d7816020860160208601612756565b6123e081612789565b602085010191505092915050565b60006123f9826126b2565b80845261240d816020860160208601612756565b61241681612789565b602085010191505092915050565b6000600d82527f496e76616c696420696e646578000000000000000000000000000000000000006020830152604082019050919050565b61246481612721565b82525050565b600060208201905061247f6000830184612285565b92915050565b6000602082019050818103600083015261249f8184612294565b905092915050565b600060208201905081810360008301526124c181846123b8565b905092915050565b600060408201905081810360008301526124e381856123b8565b905081810360208301526124f781846123b8565b90509392505050565b600060a082019050818103600083015261251a81886123b8565b9050612529602083018761245b565b818103604083015261253b818661235d565b905061254a6060830185612285565b818103608083015261255c81846123b8565b90509695505050505050565b6000606082019050818103600083015261258281866123b8565b9050612591602083018561245b565b61259e604083018461245b565b949350505050565b600060208201905081810360008301526125bf81612424565b9050919050565b60006020820190506125db600083018461245b565b92915050565b60006040820190506125f6600083018561245b565b818103602083015261260881846122ef565b90509392505050565b6000604051905081810181811067ffffffffffffffff8211171561263457600080fd5b8060405250919050565b600067ffffffffffffffff82111561265557600080fd5b601f19601f8301169050602081019050919050565b6000602082019050919050565b6000602082019050919050565b6000602082019050919050565b600081519050919050565b600081519050919050565b600081519050919050565b600081519050919050565b600081519050919050565b6000602082019050919050565b6000602082019050919050565b6000602082019050919050565b60006126fa82612701565b9050919050565b600073ffffffffffffffffffffffffffffffffffffffff82169050919050565b6000819050919050565b600061273682612701565b9050919050565b6000819050919050565b82818337600083830152505050565b60005b83811015612774578082015181840152602081019050612759565b83811115612783576000848401525b50505050565b6000601f19601f830116905091905056fea265627a7a7230582072677f8d88f434800ec7f8161bd7f1326c00f78bdf31790621c2c8cf168d0db06c6578706572696d656e74616cf50037",
  "source": "pragma solidity ^0.5.1;\r\npragma experimental ABIEncoderV2;\r\ncontract Medishield {\r\n    struct Patient {\r\n        string name;\r\n        uint number;\r\n        address[] healthcareAccessList;\r\n        uint[] diagnosis;\r\n        string record;\r\n        string[] recordHashes; // Array to store IPFS hashes\r\n    }\r\n\r\n    struct Healthcare {\r\n        string name;\r\n        uint number;\r\n        uint designation;\r\n        address[] patientAccessList;\r\n    }\r\n\r\n    uint creditPool;\r\n\r\n    address[] public patientList;\r\n    address[] public healthcareList;\r\n\r\n    mapping(address => Patient) patientInfo;\r\n    mapping(address => Healthcare) healthcareInfo;\r\n    mapping(address => address) Empty;\r\n\r\n    // Function to add agent (patient or healthcare provider)\r\n    function add_agent(\r\n        string memory _name,\r\n        uint _number,\r\n        uint _designation,\r\n        string memory _hash\r\n    ) public returns (string memory) {\r\n        address addr = msg.sender;\r\n\r\n        if (_designation == 0) {\r\n            Patient memory p;\r\n            p.name = _name;\r\n            p.number = _number;\r\n            p.record = _hash;\r\n            patientInfo[msg.sender] = p;\r\n            patientList.push(addr) - 1;\r\n            return _name;\r\n        } else if (_designation == 1 || _designation == 2) {\r\n            Healthcare memory d;\r\n            d.name = _name;\r\n            d.number = _number;\r\n            d.designation = _designation;\r\n            healthcareInfo[msg.sender] = d;\r\n            healthcareList.push(addr) - 1;\r\n            return _name;\r\n        } else {\r\n            revert();\r\n        }\r\n    }\r\n    function get_patient(\r\n        address addr\r\n    )\r\n        public\r\n        view\r\n        returns (string memory, uint, uint[] memory, address, string memory)\r\n    {\r\n        // if(keccak256(patientInfo[addr].name) == keccak256(\"\"))revert();\r\n        return (\r\n            patientInfo[addr].name,\r\n            patientInfo[addr].number,\r\n            patientInfo[addr].diagnosis,\r\n            Empty[addr],\r\n            patientInfo[addr].record\r\n        );\r\n    }\r\n    // Function to upload patient record by patient\r\n    function uploadPatientRecord(string memory _recordHash) public {\r\n        patientInfo[msg.sender].recordHashes.push(_recordHash);\r\n    }\r\n\r\n    // Function to get number of patient record hashes\r\n    function getPatientRecordCount(address addr) public view returns (uint) {\r\n        return patientInfo[addr].recordHashes.length;\r\n    }\r\n\r\n    // Function to get individual patient record hash by index\r\n    function getPatientRecord(\r\n        uint index,\r\n        address addr\r\n    ) public view returns (string memory) {\r\n        require(index < patientInfo[addr].recordHashes.length, \"Invalid index\");\r\n        return patientInfo[addr].recordHashes[index];\r\n    }\r\n\r\n    // Function to get all patient record hashes\r\n    function getAllPatientRecords(\r\n        address addr\r\n    ) public view returns (uint, string[] memory) {\r\n        uint recordCount = getPatientRecordCount(addr);\r\n        string[] memory allRecords = new string[](recordCount);\r\n\r\n        for (uint i = 0; i < recordCount; i++) {\r\n            allRecords[i] = getPatientRecord(i, addr);\r\n        }\r\n\r\n        return (recordCount, allRecords);\r\n    }\r\n\r\n    function get_healthcare(\r\n        address addr\r\n    ) public view returns (string memory, uint, uint256) {\r\n        // if(keccak256(healthcareInfo[addr].name)==keccak256(\"\"))revert();\r\n        return (\r\n            healthcareInfo[addr].name,\r\n            healthcareInfo[addr].number,\r\n            healthcareInfo[addr].designation\r\n        );\r\n    }\r\n    function get_patient_healthcare_name(\r\n        address paddr,\r\n        address daddr\r\n    ) public view returns (string memory, string memory) {\r\n        return (patientInfo[paddr].name, healthcareInfo[daddr].name);\r\n    }\r\n\r\n    function permit_access(address addr) public payable {\r\n        require(msg.value == 2 ether);\r\n\r\n        creditPool += 2;\r\n\r\n        healthcareInfo[addr].patientAccessList.push(msg.sender) - 1;\r\n        patientInfo[msg.sender].healthcareAccessList.push(addr) - 1;\r\n    }\r\n\r\n    //must be called by healthcare.\r\n    function submitfile(\r\n        address paddr,\r\n        uint _diagnosis,\r\n        string memory _hash\r\n    ) public {\r\n        bool patientFound = false;\r\n        for (\r\n            uint i = 0;\r\n            i < healthcareInfo[msg.sender].patientAccessList.length;\r\n            i++\r\n        ) {\r\n            if (healthcareInfo[msg.sender].patientAccessList[i] == paddr) {\r\n                msg.sender.transfer(2 ether);\r\n                creditPool -= 2;\r\n                patientFound = true;\r\n            }\r\n        }\r\n        if (patientFound == true) {\r\n            set_hash(paddr, _hash);\r\n            remove_patient(paddr, msg.sender);\r\n        } else {\r\n            revert();\r\n        }\r\n\r\n        bool DiagnosisFound = false;\r\n        for (uint j = 0; j < patientInfo[paddr].diagnosis.length; j++) {\r\n            if (patientInfo[paddr].diagnosis[j] == _diagnosis)\r\n                DiagnosisFound = true;\r\n        }\r\n    }\r\n\r\n    function remove_element_in_array(\r\n        address[] storage Array,\r\n        address addr\r\n    ) internal returns (uint) {\r\n        bool check = false;\r\n        uint del_index = 0;\r\n        for (uint i = 0; i < Array.length; i++) {\r\n            if (Array[i] == addr) {\r\n                check = true;\r\n                del_index = i;\r\n            }\r\n        }\r\n        if (!check) revert();\r\n        else {\r\n            if (Array.length == 1) {\r\n                delete Array[del_index];\r\n            } else {\r\n                Array[del_index] = Array[Array.length - 1];\r\n                delete Array[Array.length - 1];\r\n            }\r\n            Array.length--;\r\n        }\r\n    }\r\n\r\n    function remove_patient(address paddr, address daddr) public {\r\n        remove_element_in_array(healthcareInfo[daddr].patientAccessList, paddr);\r\n        remove_element_in_array(patientInfo[paddr].healthcareAccessList, daddr);\r\n    }\r\n\r\n    function get_accessed_healthcarelist_for_patient(\r\n        address addr\r\n    ) public view returns (address[] memory) {\r\n        address[] storage healthcareaddr = patientInfo[addr]\r\n            .healthcareAccessList;\r\n        return healthcareaddr;\r\n    }\r\n    function get_accessed_patientlist_for_healthcare(\r\n        address addr\r\n    ) public view returns (address[] memory) {\r\n        return healthcareInfo[addr].patientAccessList;\r\n    }\r\n\r\n    function revoke_access(address daddr) public payable {\r\n        remove_patient(msg.sender, daddr);\r\n        msg.sender.transfer(2 ether);\r\n        creditPool -= 2;\r\n    }\r\n\r\n    function get_patient_list() public view returns (address[] memory) {\r\n        return patientList;\r\n    }\r\n\r\n    function get_healthcare_list() public view returns (address[] memory) {\r\n        return healthcareList;\r\n    }\r\n\r\n    function get_hash(address paddr) public view returns (string memory) {\r\n        return patientInfo[paddr].record;\r\n    }\r\n\r\n    function set_hash(address paddr, string memory _hash) internal {\r\n        patientInfo[paddr].record = _hash;\r\n    }\r\n}\r\n",
  "sourcePath": "C:\\Users\\Thakshith\\Desktop\\MSRIT 8\\MAJOR\\working\\EHR-Using-Blockchain\\contracts\\Medishield.sol",
  "compiler": {
    "name": "solc",
    "version": "0.5.1+commit.c8a2cb62.Emscripten.clang"
  },
  "schemaVersion": "3.4.16",
  "updatedAt": "2024-04-23T10:31:29.463Z",
  "networkType": "ethereum",
  "devdoc": {
    "methods": {}
  },
  "userdoc": {
    "methods": {}
  }
}